{
  "transactions": [
    {
      "hash": "0x9ced7be883bfd8c5869792df3fc7ef31c255abc09feff8f0fec75779e6fc39a3",
      "transactionType": "CALL",
      "contractName": null,
      "contractAddress": "0x64d850e7696acd09341036ee7a82d9be11f89e12",
      "function": "flipMood(uint256)",
      "arguments": [
        "0"
      ],
      "transaction": {
        "from": "0x7cc477e9eb41c6d1d54234952932afb22d955e43",
        "to": "0x64d850e7696acd09341036ee7a82d9be11f89e12",
        "gas": "0xfb83",
        "value": "0x0",
        "input": "0xc1a147a00000000000000000000000000000000000000000000000000000000000000000",
        "nonce": "0x14",
        "chainId": "0xaa36a7"
      },
      "additionalContracts": [],
      "isFixedGasLimit": false
    }
  ],
  "receipts": [
    {
      "status": "0x1",
      "cumulativeGasUsed": "0xe844d5",
      "logs": [],
      "logsBloom": "0x00000000000000000000000000000000000000000000000000000000000000000000000000000000000000000000000000000000000000000000000000000000000000000000000000000000000000000000000000000000000000000000000000000000000000000000000000000000000000000000000000000000000000000000000000000000000000000000000000000000000000000000000000000000000000000000000000000000000000000000000000000000000000000000000000000000000000000000000000000000000000000000000000000000000000000000000000000000000000000000000000000000000000000000000000000000",
      "type": "0x2",
      "transactionHash": "0x9ced7be883bfd8c5869792df3fc7ef31c255abc09feff8f0fec75779e6fc39a3",
      "transactionIndex": "0x55",
      "blockHash": "0xef0abd52660bf84ff0da04c2a5ffb8a585f9868f4ed5f3f82ecc0db1e2076b4f",
      "blockNumber": "0x741edb",
      "gasUsed": "0xabfa",
      "effectiveGasPrice": "0x1acc5f641",
      "from": "0x7cc477e9eb41c6d1d54234952932afb22d955e43",
      "to": "0x64d850e7696acd09341036ee7a82d9be11f89e12",
      "contractAddress": null
    }
  ],
  "libraries": [],
  "pending": [],
  "returns": {},
  "timestamp": 1738324213,
  "chain": 11155111,
  "commit": "fc8fd78"
}