{
  "transactions": [
    {
      "hash": "0x3fc601c7ea37b399b393d3033853177a5559a454d07ecc919a88af6c4eb62f9a",
      "transactionType": "CALL",
      "contractName": null,
      "contractAddress": "0xd8a182e53fc35ed1cded854817b08fc09a02a4f1",
      "function": "mintNft(string)",
      "arguments": [
        "ipfs://bafybeig37ioir76s7mg5oobetncojcm3c3hxasyd4rvid4jqhy4gkaheg4/?filename=0-PUG.json"
      ],
      "transaction": {
        "from": "0x7cc477e9eb41c6d1d54234952932afb22d955e43",
        "to": "0xd8a182e53fc35ed1cded854817b08fc09a02a4f1",
        "gas": "0x40fc0",
        "value": "0x0",
        "input": "0xda86f4a900000000000000000000000000000000000000000000000000000000000000200000000000000000000000000000000000000000000000000000000000000057697066733a2f2f62616679626569673337696f6972373673376d67356f6f6265746e636f6a636d3363336878617379643472766964346a71687934676b61686567342f3f66696c656e616d653d302d5055472e6a736f6e000000000000000000",
        "nonce": "0x11",
        "chainId": "0xaa36a7"
      },
      "additionalContracts": [],
      "isFixedGasLimit": false
    }
  ],
  "receipts": [
    {
      "status": "0x1",
      "cumulativeGasUsed": "0x10a542f",
      "logs": [
        {
          "address": "0xd8a182e53fc35ed1cded854817b08fc09a02a4f1",
          "topics": [
            "0xddf252ad1be2c89b69c2b068fc378daa952ba7f163c4a11628f55a4df523b3ef",
            "0x0000000000000000000000000000000000000000000000000000000000000000",
            "0x0000000000000000000000007cc477e9eb41c6d1d54234952932afb22d955e43",
            "0x0000000000000000000000000000000000000000000000000000000000000000"
          ],
          "data": "0x",
          "blockHash": "0xe007ac75220ea2fef86c415acde0e12b11f8d2ceb28c71aef2ce2144ef0b1b5e",
          "blockNumber": "0x735deb",
          "transactionHash": "0x3fc601c7ea37b399b393d3033853177a5559a454d07ecc919a88af6c4eb62f9a",
          "transactionIndex": "0x9d",
          "logIndex": "0x15d",
          "removed": false
        }
      ],
      "logsBloom": "0x00000000000000000400000000000000000080000000000000000000000000000000000000000000000000000100000000000000800000000000000000000000000000000000000000000008000000000000000000000000000000000000000000000000020000000000000000000800000000000000000000000010000000000000000000000000000000000000000000002000000000000000000000000000000000000000000000000000000000000000000000000000000000000000000004000002000000000000000000000000000000000000000000000000000020000000000000000000000000000000000000000000000000000000000000000000",
      "type": "0x2",
      "transactionHash": "0x3fc601c7ea37b399b393d3033853177a5559a454d07ecc919a88af6c4eb62f9a",
      "transactionIndex": "0x9d",
      "blockHash": "0xe007ac75220ea2fef86c415acde0e12b11f8d2ceb28c71aef2ce2144ef0b1b5e",
      "blockNumber": "0x735deb",
      "gasUsed": "0x2c6f1",
      "effectiveGasPrice": "0xc50cd2d27",
      "from": "0x7cc477e9eb41c6d1d54234952932afb22d955e43",
      "to": "0xd8a182e53fc35ed1cded854817b08fc09a02a4f1",
      "contractAddress": null
    }
  ],
  "libraries": [],
  "pending": [],
  "returns": {},
  "timestamp": 1737718465,
  "chain": 11155111,
  "commit": "066434c"
}